:100000000C94CD000C94F5000C94F5000C94810335
:100010000C9481030C9481030C94F5000C94F5006E
:100020000C94F5000C94F5000C94F5000C94F5007C
:100030000C94F5000C945A030C94F5000C94F50004
:100040000C9410030C94F5000C946B0C0C94450C60
:100050000C94F5000C94F5000C94F5000C94F5004C
:100060000C94F5000C94F5004669726D7761726529
:100070002056657273696F6E0048617264776172B1
:10008000652056657273696F6E20616E64205479C5
:10009000706500777269746520656570726F6D00B8
:1000A0007265616420656570726F6D00526563658D
:1000B000697665642041434B0070617273696E67B5
:1000C0002066726F6D2061636B77616974200053E5
:1000D000656E64696E672041434B206F72204272E7
:1000E0006F616463617374000A53656E64696E675F
:1000F0000A00637263206572726F72000A50616356
:100100006B65742073697A6520746F20626967205B
:100110002D2069676E6F72650A000A526563656912
:1001200076696E67200A0000000000240027002A7C
:1001300000000000080002010000030407000000A6
:10014000000000000070617273696E672066726F54
:100150006D206C6F6F702E2E2E00000000002500A9
:1001600028002B00000000002300260029000404C2
:10017000040404040404020202020202030303034F
:10018000030301020408102040800102040810202B
:10019000010204081020F012120D11241FBECFEF2F
:1001A000D8E0DEBFCDBF24E0ACEAB1E001C01D92D3
:1001B000A73FB207E1F711E0A0E0B1E0E8ECF1E31E
:1001C00002C005900D92AC3AB107D9F710E0CCEC23
:1001D000D0E004C02197FE010E94E213CB3CD1077E
:1001E000C9F70E941C0D0C94D7180C9400002091A4
:1001F0004A0230914B022817390771F49091480256
:1002000080914902981741F0E0914802F0E0E150F6
:10021000FE4F808190E008958FEF9FEF089508953D
:100220001F93CF93DF93DC015C962D913C915D97FA
:100230002115310539F481E090E013969C938E935B
:1002400012973DC05196ED91FC91529750969C911A
:100250005097892F80951FB75E964C915E9741FB12
:10026000772770F941FD6095F8944081772311F06C
:10027000492B01C048234083E9012197F1F748E069
:10028000508160FF02C0592B01C058235083E901FF
:100290002197F1F76695415099F7772321F09081E6
:1002A0008923808303C08081982B90831FBF5C9635
:1002B0008D919C915D970197F1F721E030E0C901A4
:1002C000DF91CF911F91089520914A0230914B0206
:1002D0002817390771F4809149022091480290E073
:1002E000805C9F4F821B910960E470E00E94CE13F6
:1002F000089580E090E0089520914A0230914B02E9
:1003000028173907B9F4909148028091490298174B
:1003100089F0E0914802F0E0E150FE4F80812091A9
:10032000480230E02F5F3F4F2F733327209348025E
:1003300090E008958FEF9FEF0895CA0128E0AC0187
:10034000880F991F67FD816057FF04C032E0832743
:1003500030E19327660F215091F70895CF93DF93F3
:10036000EC01EB81FC8184E08587EB81FC8189E6EF
:100370008687EB81FC8167878D819E81DC01ED9111
:10038000FC910480F581E02D0995EB81FC81908B37
:10039000EB81FC81818BDF91CF9108958F929F92A9
:1003A000AF92BF92CF92DF92EF92FF920F931F9383
:1003B000CF93DF938091AC019091AD018233910591
:1003C00034F401969093AD018093AC0138C0109243
:1003D000AD011092AC01CEE6D2E08EE4E82E82E0D0
:1003E000F82E04EB12E098EEC92E93E0D92EF80116
:1003F0002081318142815381ACE0B0E00E945C18E1
:100400004B015C018C859D85B6010E94BA139B014E
:1004100040E050E0C501B4010E943D18F70121936E
:100420003193419351937F01F801119211921192EE
:1004300011928F012896F2E0CE3ADF07C1F6DF91E4
:10044000CF911F910F91FF90EF90DF90CF90BF90D1
:10045000AF909F908F900895683048F484E0689F33
:10046000F0011124EC52FD4F80819181089580E0CC
:1004700090E00895089508950C947D140C947D14D3
:100480000F931F93CF93DF93C0E0D0E00EE612E00E
:100490002196CE010E942718F80181938F01C6345E
:1004A000D105B1F780916E028F3F19F484E18093FA
:1004B0006E0280916F0290917002A0917102B091D2
:1004C00072028F3F9F4FAF4FBF4F61F481E090E0CA
:1004D000A0E0B0E080936F0290937002A09371024D
:1004E000B0937202EEE6F2E081E090E02AE030E0C4
:1004F00046E950E068EE73E0A681B781119611F4E9
:1005000097838683A085B185119611F43187208762
:10051000A285B385119611F453874287A485B585CA
:10052000AF3FB10511F4758764873896A2E0EE3AC3
:10053000FA0711F7DF91CF911F910F910895833042
:1005400081F028F4813099F08230A1F0089587304D
:10055000A9F08830B9F08430D1F4809180008F7D8B
:1005600003C0809180008F7780938000089584B5C8
:100570008F7702C084B58F7D84BD08958091B000CF
:100580008F7703C08091B0008F7D8093B000089575
:10059000CF93DF9390E0FC01EE57FE4F2491FC01D6
:1005A000E259FE4F8491882361F190E0880F991FF2
:1005B000FC01E95DFE4FC591D491FC01E65AFE4F66
:1005C000A591B491611109C09FB7F89488812095D5
:1005D00082238883EC912E230BC0623061F49FB795
:1005E000F8943881822F809583238883EC912E2B79
:1005F0002C939FBF06C08FB7F894E8812E2B2883D9
:100600008FBFDF91CF9108952FB7F8946091440286
:100610007091450280914602909147022FBF089544
:100620001F920F920FB60F9211242F933F938F9327
:100630009F93AF93BF938091440290914502A09104
:100640004602B09147023091430223E0230F2D3739
:1006500020F40196A11DB11D05C026E8230F0296C6
:10066000A11DB11D20934302809344029093450243
:10067000A0934602B093470280913F0290914002BE
:10068000A0914102B09142020196A11DB11D80933B
:100690003F0290934002A0934102B0934202BF9167
:1006A000AF919F918F913F912F910F900FBE0F901F
:1006B0001F9018951F920F920FB60F9211242F932F
:1006C0003F934F935F936F937F938F939F93AF93DA
:1006D000BF93EF93FF93E0914C02F0914D02099587
:1006E000FF91EF91BF91AF919F918F917F916F910A
:1006F0005F914F913F912F910F900FBE0F901F90E0
:1007000018951F920F920FB60F9211242F933F93BB
:100710004F935F936F937F938F939F93AF93BF9309
:10072000EF93FF93E0914A02F0914B02309709F466
:1007300051C0968DA685B785858591FF04C09C9193
:10074000892329F447C09C91892309F043C0A389D8
:10075000B4899C918589809589238C938689978912
:100760000197F1F7608D718DA685B785558538E0C5
:1007700020E0CB010197F1F7822F90E095958795C6
:10078000282F4C91452309F02068315091F7868D30
:1007900081FD20958091490290E001968F73992701
:1007A00030914802381749F0A0914902B0E0A150B9
:1007B000BE4F2C938093490203C0868D8160868F43
:1007C000828D938D0197F1F7A389B4899C918589D6
:1007D000892B8C93FF91EF91BF91AF919F918F9156
:1007E0007F916F915F914F913F912F910F900FBE2D
:1007F0000F901F901895E0914A02F0914B02E81774
:10080000F90769F4A389B4899C9185898095892326
:100810008C9310924B0210924A0281E0089580E07E
:10082000089508950F931F93CF93DF930091910341
:10083000109192030115110581F0EC01FE01649104
:10084000662359F0D801ED91FC910190F081E02DE3
:10085000C80109952196892B89F7DF91CF911F91C6
:100860000F910895EF92FF920F931F93CF93DF9311
:10087000CDB7DEB764970FB6F894DEBF0FBECDBF1D
:100880008B01DC011396ED91FC911497EE5AFF4F0A
:10089000608171818281938120E836E948E950E0E6
:1008A0000E946F189F938F937F936F9382E591E0DF
:1008B0009F938F93FE0131967F01FF93EF930E94E8
:1008C0002A1588E4D8018C9382E411968C931197B1
:1008D00087E512968C931297139687E0F7010190A3
:1008E0000D928A95E1F70FB6F894DEBF0FBECDBF2B
:1008F00064960FB6F894DEBF0FBECDBFDF91CF91E7
:100900001F910F91FF90EF900895CF92DF92EF9299
:10091000FF920F931F93CF93DF93EC010CEF13E043
:1009200060E070E0CB01CC24D62EE72EF82EC80173
:100930000E942718A7019601282BCA01B9010F5F51
:100940001F4F011534E0130771F76F3F4FEF740726
:100950008407940721F46FEF7FEF8FEF92E40B8011
:10096000DC81C02DFE01EE5AFF4F608371838283CC
:100970009383611571058105910511F00E941E1880
:100980000E941918CE55DF4F24E630E040E050E0D9
:100990000E943D18DC01CB018E529F4FAF4FBF4FDD
:1009A00099838883DF91CF911F910F91FF90EF90F2
:1009B000DF90CF9008950F931F93CF93DF931F92F3
:1009C000CDB7DEB7FB01211103C06C3F734084F447
:1009D0008F01CF0149830E9427186981681741F070
:1009E000C8010F90DF91CF911F910F910C942F1898
:1009F0000F90DF91CF911F910F9108950895482F87
:100A00008091910390919203009731F050E060E063
:100A100070E02AE00C94FC0B0895BC0180919103D6
:100A200090919203009711F00C94E70B08956F9248
:100A30007F928F929F92AF92BF92CF92DF92EF926E
:100A4000FF920F931F93CF93DF93EC016C018EE421
:100A5000C80ED11C5E019EE9A90EB11CDE01AF5A81
:100A6000BF4F7D010FEF44E0742E59E0652ED60193
:100A70008D919C91DC01ED91FC910480F581E02D3C
:100A80000995892B09F423C10E940403F5016083B1
:100A9000718382839383D6018D919C91DC01ED91CA
:100AA000FC910680F781E02D09954C01182F8D3FB0
:100AB00021F48AE191E00E941204C401992734E0F4
:100AC000969587953A95E1F70E94CD0CC4018F70F9
:100AD00099270E94CD0C89EA91E00E940D051C3FE8
:100AE00039F4F701808181FD03C082608083BFCF2C
:100AF00083E0880D823068F58092FE01D7018C91E9
:100B00008D7F81608C931092FD011092FC011092F8
:100B1000F8011092F9011092FA011092FB01109263
:100B2000F4011092F5011092F6011092F7014FEFC7
:100B30005FEF682DCE010E949D019093F301809399
:100B4000F2011D3F09F093CF7092F1016092F00124
:100B50008ECFF701808180FF8ACF81FF04C0182DDE
:100B600010688D7F80834091F2015091F301612FD5
:100B7000CE010E949D019C019093F3018093F201AC
:100B80009091FC018091F1019817B0F44091F4012B
:100B90005091F5016091F6017091F701762F652F64
:100BA000542F4427412B4093F4015093F501609357
:100BB000F6017093F70125C0981306C09F5F9093CC
:100BC000FC011093EF0153CF5091EF0153FF1DC073
:100BD0008091F0019817C8F44091F8015091F90103
:100BE0006091FA017091FB01762F652F542F4427F5
:100BF000412B4093F8015093F9016093FA017093EF
:100C0000FB019F5F9093FC0132CF9F3F71F00093F7
:100C1000FC011093EE01113408F429CFD7018C9117
:100C20008E7F8C938CEF90E04FC04091FD01E42FBC
:100C3000F0E0E255FE4F108381E0840F8093FD01C8
:100C40009091EE01891313CF232BE1F5F7018081F9
:100C50008E7F8083FE01E456FF4F8091FE018083EA
:100C6000E554F1098091F4019091F501A091F6010C
:100C7000B091F70180839183A283B383EA5BFF4F36
:100C800050838091F8019091F901A091FA01B091FF
:100C9000FB018C839D83AE83BF834150E254F109F5
:100CA000408350E06EEA71E0CE01845A9F4F0E946B
:100CB0001A151092FD011092FC01CA5ADF4F81E013
:100CC000888305C082EF90E00E941204D0CEDF91AD
:100CD000CF911F910F91FF90EF90DF90CF90BF9039
:100CE000AF909F908F907F906F9008950F931F9378
:100CF000CF938C01C62F862F90E024E096958795A0
:100D00002A95E1F70E94CD0C8C2F8F7090E00E9405
:100D1000CD0C89EA91E00E940D0584E08C0F025B06
:100D20001F4F833060F4D8018D919C91DC01ED91CF
:100D3000FC910190F081E02D6CEF0995CF77F801DF
:100D400080819181DC01ED91FC910190F081E02D99
:100D50006C2FCF911F910F9109944F925F926F92D8
:100D60007F928F929F92AF92BF92CF92DF92EF923B
:100D7000FF921F93CF93DF9300D000D000D0CDB768
:100D8000DEB74C01FC0180859185A285B3858F3F3C
:100D90009F4FAF4FBF4FA1F0F401E356FF4F80814B
:100DA00090E095958795837020E2829FC001112481
:100DB000D4011C969C911C979F79892B1C968C932F
:100DC00088EE90E00E9412047401B0E5EB0EF11C75
:100DD00061E0F70180810E949D0C6401FEE4CF0E6A
:100DE000D11CD6018D919C91DC01ED91FC9101907B
:100DF000F081E02D6DEF09954FEF5FEF6DEFC401CE
:100E00000E949D015C01F4014084518462847384DA
:100E100014E0872D9927AA27BB2789839A83AB8360
:100E2000BC836981C4010E947606A5016981C40161
:100E30000E949D015C01762C652C542C4424115099
:100E400041F7D4011C966C91C4010E947606F4010E
:100E50001485A501612FC4010E949D015C0113FF4F
:100E600020C0F401EE5AFF4F4080518062807380B1
:100E700014E0872D9927AA27BB2789839A83AB8300
:100E8000BC836981C4010E947606A5016981C40101
:100E90000E949D015C01762C652C542C4424115039
:100EA00041F7D4011D961C911E5F612FC4010E9461
:100EB0007606A501612FC4010E949D01AC0110E0DE
:100EC000F40185851817A8F45401A10EB11CF50191
:100ED0006685C4014D835E830E9476064D815E81E6
:100EE000D5011E966C91C4010E949D01AC011F5F4B
:100EF000E7CF60E0C4010E949D01AC0160E0C40145
:100F00000E949D01182F692FC4010E947606612F4F
:100F1000C4010E947606D6018D919C91DC01ED9171
:100F2000FC910284F385E02D099560E0F701808152
:100F30000E949D0CF401EF5AFF4F808188608083EE
:100F400026960FB6F894DEBF0FBECDBFDF91CF91CE
:100F50001F91FF90EF90DF90CF90BF90AF909F9048
:100F60008F907F906F905F904F9008954F925F9217
:100F70006F927F928F929F92AF92BF92CF92DF92A9
:100F8000EF92FF920F931F93CF93DF93EC01862E86
:100F9000662379F10E940403FE01E256FF4F0081AF
:100FA000118122813381AB01BC01401B510B620BCB
:100FB000730B8E010E551F4FF80180819181A0E0C7
:100FC000B0E0481759076A077B0710F481E09AC020
:100FD0000E94191824E630E040E050E00E943D18DD
:100FE000DC01CB018E529F4FAF4FBF4FF801918371
:100FF000808388859985AA85BB858F3F9F4FAF4F9A
:10100000BF4F09F460C08C858370813009F45BC0E8
:1010100083E0982E8E010A5A1F4F7E0127E5E20ECB
:10102000F11C6E0182E5C80ED11C5E01E1E5AE0E39
:10103000B11CCE010E94AD060E9404032B013C01AD
:101040000E940403DC01CB0184199509A609B709A4
:10105000883C9105A105B10530F5CE010E94170528
:10106000F8018081882361F3F70140815181628119
:101070007381F60180819181A281B381481759075C
:101080006A077B07E9F6F801108289EB90E00E947D
:101090001204CE010E949308F5019081892F887077
:1010A00093FDCECF2FC0882049F10E940403DC01BC
:1010B000CB0184199509A609B70986399105A105BF
:1010C000B105E0F483CF8FEC90E00E9412044C85D0
:1010D0008091910390919203009731F050E060E08D
:1010E00070E020E10E94FC0BCE010E94AD06CF5AB9
:1010F000DF4F8881877F888380E004C09A949110B5
:1011000098CF82E0DF91CF911F910F91FF90EF90E8
:10111000DF90CF90BF90AF909F908F907F906F9017
:101120005F904F900895EF92FF920F931F93CF938C
:10113000DF93EC018C010F5A1F4FF80180819E0153
:1011400023563F4F790183FF26C0F901808190E04B
:1011500025E0959587952A95E1F7282F23708C85B2
:1011600090E0959587958370281315C04C815D811B
:101170006E817F8188859985AA85BB854817590727
:101180006A077B0741F48CEA90E00E941204F801A0
:101190008081877F8083F701808183708130F9F0BF
:1011A000FE01E55AFF4F808181111BC03497808179
:1011B0009181A281B3818F3F9F4FAF4FBF4F89F085
:1011C0008C819D81AE81BF8188879987AA87BB87E3
:1011D00089E18C871D8660E0CE010E94B60780E021
:1011E00001C081E0DF91CF911F910F91FF90EF90AF
:1011F00008954F925F926F927F928F929F92AF92DB
:10120000BF92CF92DF92EF92FF920F931F93CF93F3
:10121000DF932111A9C1D42E8B01EC01EB81FC815C
:1012200084819581A681B78180879187A287B387C2
:1012300088E78487DB018C91833509F4FFC0A0F433
:10124000833409F454C030F4803489F1813409F4D2
:1012500067C16EC18B3409F463C1823509F4C5C01E
:10126000853409F065C14DC0833709F434C150F4A9
:10127000883609F413C18E3609F41CC1873509F08C
:1012800057C1DFC0883709F426C18B3C09F448C137
:10129000863709F04DC188E690E00E941204EB8188
:1012A000FC8183E08687EB81FC8186E00EC1FB0137
:1012B0008181813621F0CE010E94850439C1F6E09A
:1012C0004F13F9CF7B0122E0E20EF11C0CEF13E08B
:1012D000D7014D917D0121E0B801CE010E94DB04D0
:1012E0000F5F1F4F0115B4E01B0791F7E4CF8D810D
:1012F0009E81DC01ED91FC910680F781E02D09953E
:1013000017C1FB01A380E480EB81FC818E2D8695C3
:10131000869586958C5F85878E2D877029F0EB8169
:10132000FC8185858F5F85878B819C81DC011D9683
:101330004C9150E060E070E00E960E942315EB8126
:10134000FC8185E68687EB81FC81D80111968C9122
:1013500011978787EB81FC8112968C911297808B75
:10136000EB81FC8113968C91818BB12C812C912C7B
:1013700000E010E0F12C412C512C32014394E01696
:10138000F1060CF4D1C0C12CD12CCA14DB0444F5F5
:10139000C601880D991D0E9427188F3FE9F08B81A7
:1013A0009C81F80123E0F595E7952A95E1F73496BD
:1013B000E80FF91FC80187709927A301920104C0A3
:1013C000220F331F441F551F8A95D2F7DA01C90136
:1013D0002685822B868704C03FEFC31AD30AD5CF58
:1013E0000F5F1F4F8A0C9B1CCACF44E0D412A0C0D1
:1013F00080EA90E00E941204D8011196EC901197B7
:10140000F12CFE2CEE2412968C91E82AD12CF801B6
:1014100083818B809C80D81668F4AD2CB12CC501DB
:101420008E0D9F1D0E942718F401EA0DFB1D868773
:10143000D394EDCFD4011D968C9376C043E5FB0188
:101440006BC0242F30E0DB0113968C9190E0049662
:101450002817390709F06CC083E990E00E94120454
:10146000F801E180F12CFE2CEE2482815801F4E099
:10147000AF0EB11CE82A14E01E19812F8E0D8D15B8
:1014800008F056C0D5014D915D0120E0B701CE01B5
:101490000E94DB04BFEFEB1AFB0AEFCF89E790E075
:1014A0000E941204EB81FC818A818687EB81FC819A
:1014B00081E00BC06B817C81625F7F4FCE010E9417
:1014C0003204EB81FC818AE004C08787EB81FC81D8
:1014D00082E0858729C0F801F1808D819E81DC0141
:1014E000ED91FC91D80112964C9150E00190F08161
:1014F000E02D6F2D09958D819E81DC01ED91FC9190
:1015000098012E5F3F4F4EEF4D0D0280F381E02D8D
:101510006F2D0995F80140816181CE010E94AE01D5
:10152000EB81FC8189E6868760E08B819C810AC023
:101530008B819C8129E1DC011C962C931C971D96C4
:101540001C9260E0DF91CF911F910F91FF90EF907F
:10155000DF90CF90BF90AF909F908F907F906F90D3
:101560005F904F900C94B607DF91CF911F910F9130
:10157000FF90EF90DF90CF90BF90AF909F908F90B3
:101580007F906F905F904F900895CF92DF92EF928F
:10159000FF920F931F93CF93DF936C017A018B011E
:1015A000C0E0D0E0CE15DF0589F0D8016D918D0146
:1015B000D601ED91FC910190F081E02DC6010995D5
:1015C000892B11F47E0102C02196ECCFC701DF9177
:1015D000CF911F910F91FF90EF90DF90CF900895E2
:1015E000FC01918D828D981761F0828DDF01A80F2B
:1015F000B11D5D968C91928D9F5F9F73928F90E04D
:1016000008958FEF9FEF0895FC01918D828D9817BB
:1016100031F0828DE80FF11D858D90E008958FEFF8
:101620009FEF0895FC01918D228D892F90E0805CC1
:101630009F4F821B91098F739927089583E993E047
:101640000E94120B21E0892B09F420E0822F0895DB
:10165000FC01848DDF01A80FB11DA35ABF4F2C914F
:10166000848D90E001968F739927848FA689B7891E
:101670002C93A089B1898C9180648C93938D848DF7
:10168000981306C00288F389E02D80818F7D8083C6
:101690000895EF92FF920F931F93CF93DF93EC0186
:1016A00081E0888F9B8D8C8D981305C0E889F9891E
:1016B000808185FD24C0F62E0B8D10E00F5F1F4F3B
:1016C0000F731127E02E8C8DE8120CC00FB607FCAB
:1016D000FACFE889F989808185FFF5CFCE010E9494
:1016E000280BF1CF8B8DFE01E80FF11DE35AFF4F60
:1016F000F0820B8FEA89FB898081806207C0EE89C6
:10170000FF896083E889F98980818064808381E032
:1017100090E0DF91CF911F910F91FF90EF9008958E
:10172000CF93DF93EC01888D8823C9F0EA89FB8988
:10173000808185FD05C0A889B9898C9186FD0FC07F
:101740000FB607FCF5CF808185FFF2CFA889B98954
:101750008C9185FFEDCFCE010E94280BE7CFDF9162
:10176000CF91089580E090E0892B29F00E941E0B14
:1017700081110C94000008950E941515CF93DF93FA
:10178000282F30E0F901EF5CFE4F8491F901EE570C
:10179000FE4FD491F901E259FE4FC491CC2391F050
:1017A00081110E949F02EC2FF0E0EE0FFF1FEC5919
:1017B000FE4FA591B491EC91ED2381E090E021F4EE
:1017C00080E002C080E090E0DF91CF910895611544
:1017D000710579F0FB0101900020E9F73197AF0125
:1017E000461B570BDC01ED91FC910280F381E02D4B
:1017F000099480E090E008954F925F926F927F92FB
:10180000EF92FF920F931F93CF93DF93CDB7DEB785
:10181000A1970FB6F894DEBF0FBECDBF7C01FA01D1
:10182000CB0119A2223008F42AE08E010F5D1F4F70
:10183000422E512C612C712CBF01A30192010E94F8
:101840006F18F901CA01015011096A3014F4605D82
:1018500001C0695CD8016C93232B242B252B61F7E5
:10186000B801C7010E94E70BA1960FB6F894DEBF3E
:101870000FBECDBFDF91CF911F910F91FF90EF90E1
:101880007F906F905F904F9008951F920F920FB6C8
:101890000F9211242F933F934F935F936F937F93F6
:1018A0008F939F93AF93BF93EF93FF9383E993E05D
:1018B0000E94280BFF91EF91BF91AF919F918F9163
:1018C0007F916F915F914F913F912F910F900FBE3C
:1018D0000F901F9018951F920F920FB60F92112420
:1018E0002F938F939F93EF93FF93E091A303F09136
:1018F000A4038081E091A903F091AA0382FD12C0A4
:1019000090818091AC038F5F8F732091AD0382171C
:1019100051F0E091AC03F0E0ED56FC4F958F8093D1
:10192000AC0301C08081FF91EF919F918F912F9126
:101930000F900FBE0F901F9018951F93CF93DF93BA
:10194000282F30E0F901EF5CFE4F8491F901EE574A
:10195000FE4FD491F901E259FE4FC491CC23C9F056
:10196000162F81110E949F02EC2FF0E0EE0FFF1F57
:10197000E65AFE4FA591B4918FB7F894111105C0A6
:101980009C91ED2FE095E92302C0EC91ED2BEC93B7
:101990008FBFDF91CF911F910895AC01809191038A
:1019A00090919203009739F0052E000C660B770B8F
:1019B00020E10C94FC0B0895CF93DF93EC01EB81B5
:1019C000FC818FEF9FEFDC0180879187A287B3872F
:1019D00088EF8487EB81FC8180E18587EB81FC8146
:1019E00081E48687EB81FC811786EB81FC818A810B
:1019F000808BEB81FC81118AEB81FC8183E0828BFF
:101A0000EB81FC8186E0838B6B817C816C5E7F4FF8
:101A1000CE010E94320461E08B819C81DF91CF91E5
:101A20000C94B60786E491E09093D5048093D40497
:101A300084ED94E00C94FB03CF93DF93CDB7DEB736
:101A40006E970FB6F894DEBF0FBECDBF789484B505
:101A5000826084BD84B5816084BD85B5826085BDAA
:101A600085B5816085BD80916E00816080936E0038
:101A7000109281008091810082608093810080912A
:101A800081008160809381008091800081608093DB
:101A900080008091B10084608093B1008091B0009B
:101AA00081608093B00080917A00846080937A0096
:101AB00080917A00826080937A0080917A008160C0
:101AC00080937A0080917A00806880937A001092E7
:101AD000C10060E085E00E94C80261E086E00E94EB
:101AE000C80261E082E00E94C80260E082E00E94D9
:101AF0009D0C62E088E00E94C80261E08DE00E94D7
:101B0000C80283E993E09093920380939103E0915C
:101B1000A303F091A40382E08083E0919F03F091FE
:101B2000A0031082E091A103F091A20387E68083D5
:101B30001092AB03E091A703F091A80386E08083A5
:101B4000E091A503F091A603808180618083E091FC
:101B5000A503F091A603808188608083E091A503AE
:101B6000F091A603808180688083E091A503F091C5
:101B7000A60380818F7D80831092EF041092EE0483
:101B80001092ED041092EC041092EB041092EA040F
:101B90008DEC90E09093F1048093F0049091E00438
:101BA000963108F057C025E530E03093EB042093E0
:101BB000EA042BEC30E03093ED042093EC0420E9B0
:101BC00030E03093EF042093EE04209168009830C9
:101BD00050F031E09E3008F430E081E001C0880F21
:101BE0003A95EAF701C084E0822B80936800983030
:101BF00038F09E3040F0963148F020E030E008C0E8
:101C00002DE630E005C02BE630E002C02CE630E0E7
:101C10003093E8042093E704983030F481E001C069
:101C2000880F9A95EAF70EC0292F30E09E3018F4FD
:101C30002850310902C02E50310981E001C0880FBF
:101C40002A95EAF78093E9048091F0049091F104D9
:101C50000197F1F78091EE049091EF04892B21F127
:101C600080914A0290914B0224E0843D9207E1F07A
:101C7000009711F00E94FB038091F2048E7F809305
:101C8000F204109249021092480284ED94E090937D
:101C90004B0280934A02E091E704F091E8049081BE
:101CA0008091E904892B808380E091E00E944002CA
:101CB0000E9404036B017C0188E0ECE0F1E0DE01AE
:101CC000119601900D928A95E1F74DE4A42E43E020
:101CD000B42E8E010F5F1F4F58E0952E900E62E0DC
:101CE000D8018D918D010E94C802F501C192D19257
:101CF000E192F1925F019012F2CFC0928D03D092E7
:101D00008E03E0928F03F092900361E08CE00E94DA
:101D1000C802C092F802D092F902E092FA02F09260
:101D2000FB028FEF90E00E9427188093F70280E17A
:101D3000809381001092800085E08093F6028BE111
:101D400097EB9093F5028093F40290938700809331
:101D5000860085E1809381008EEC91E090934D02A6
:101D600080934C0281E080936F008091F70288237A
:101D7000D9F08091F8029091F902A091FA02B09105
:101D8000FB02A7019601281B390B4A0B5B0BDA01FA
:101D9000C90189359240A105B10594F08CE00E94FB
:101DA000BE0B61E0892B09F060E08CE00E949D0C85
:101DB000C092F802D092F902E092FA02F092FB028D
:101DC00087E090E00E94E8138C0184E291E0D80162
:101DD00011969C938E9380E091E016969C938E933F
:101DE000159780E394E014969C938E931397109329
:101DF00033040093320484E812968C93C8010E9445
:101E0000850410930C0300930B038BE891E00E9470
:101E10000D0588E591E00E940D058BE891E00E9498
:101E20000D0510E08BE791E00E940D05812F0E94C7
:101E3000FF048AE891E00E940D058AE891E00E9483
:101E40000D051F5F183071F7FE013196FA87E9879B
:101E5000E85FEC8F80E394E00E9417058091860490
:101E6000882309F444C010928604809187049091DD
:101E70008804A0918904B0918A0440918204509111
:101E80008304609184047091850484179507A607E4
:101E9000B70729F08F3F9F4FAF4FBF4F41F585E404
:101EA00091E00E94120480E394E00E94930888234A
:101EB000F1F08091320490913304DC01ED91FC91BA
:101EC00021E04091870450918804609189047091C9
:101ED0008A044F3F5F4F6F4F7F4F09F020E0019022
:101EE000F081E02D40918B046CE874E009950E942C
:101EF0000403683E73408105910578F08091FC02EF
:101F000081110BC080910B0390910C030E94DC0C9B
:101F100091E0811190E09093FC020E9404036B0118
:101F20007C018FEF90E00E94271880930A0388239A
:101F3000D9F08091060390910703A0910803B09116
:101F40000903A7019601281B390B4A0B5B0BDA0129
:101F5000C90189359240A105B10594F08CE00E9439
:101F6000BE0B61E0892B09F060E08CE00E949D0CC3
:101F7000C0920603D0920703E0920803F09209038F
:101F800088E00E94BE0B21E0892B09F020E08091BF
:101F90000503823009F44EC028F4882361F08130B3
:101FA000D1F0F1C0843009F46AC008F447C085302C
:101FB00009F48AC0E8C0222329F081E08093050358
:101FC0000E94FF04C0920103D0920203E092030337
:101FD000F0920403D8C08091010390910203A09174
:101FE0000303B0910403222381F0B701A601481B2B
:101FF000590B6A0B7B0BDB01CA0189389341A105A0
:10200000B1050CF4C0C082E05AC0A7019601281B9C
:10201000390B4A0B5B0B253631054105510534F070
:1020200080910B0390910C030E94DC0C109205032D
:1020300080E047C02111A7C083E0C0CF8091010399
:1020400090910203A0910303B0910403B701A6018C
:10205000481B590B6A0B7B0BDB01CA014436510547
:10206000610571050CF48FC0222311F084E0A6CF26
:1020700081319742A105B1050CF485C0D7CF80917D
:10208000010390910203A0910303B0910403B701EF
:10209000A601481B590B6A0B7B0BDB01CA014436B6
:1020A0005105610571050CF46EC0222309F4BECF01
:1020B000893B9B40A105B1050CF465C085E0809388
:1020C00005030E94FF045FC021115DC060E08FEF37
:1020D00090E00E942F188BE891E00E940D058DE89A
:1020E00091E00E940D0500910B0310910C033CEF51
:1020F000A32E33E0B32E80E090E0DC014424582E80
:10210000692E7A2EC5010E942718A3019201282B5F
:10211000DA01C9013FEFA31AB30AA11444E0B406DF
:1021200069F78F3F9F4FAF4FBF4F09F07FCF0E949E
:1021300004032B013C018BE991E00E940D05809185
:10214000910390919203009729F02AE0B301A20134
:102150000E94FC0BFCEFAF2EF3E0BF2E21E0442DDC
:10216000B501C8010E94DB04E3E0769467945794BC
:102170004794EA95D1F76FEFA61AB60AA11474E056
:10218000B70661F753CF80910503853048F482305C
:1021900078F4882341F0813009F045C061E004C043
:1021A0008530D1F040C060E08DE00E949D0C3BC0C6
:1021B0008091FD029091FE02A091FF02B091000378
:1021C000A7019601281B390B4A0B5B0B25363105FD
:1021D0004105510544F115C08091FD029091FE0228
:1021E000A091FF02B0910003B701A601481B590B53
:1021F0006A0B7B0BDB01CA018F3E9240A105B10542
:1022000094F08DE00E94BE0B61E0892B09F060E044
:102210008DE00E949D0CC092FD02D092FE02E092E1
:10222000FF02F09200030E9404031B012C0188E0CE
:10223000ECE0F1E0DE01119601900D928A95E1F754
:1022400080918D0390918E03A0918F03B0919003A4
:10225000A2019101281B390B4A0B5B0B2B30310576
:10226000410551050CF45AC045E8642E43E0742E34
:102270005DE7852E53E0952E64EDC62E62E0D62EE6
:102280007DE6E72E73E0F72E04EB12E0AE014F5F20
:102290005F4F5A01D5018D915D010E94BE0BF30184
:1022A00081933F01D4019C91981710F5F60140816C
:1022B0005181628173814F5F5F4F6F4F7F4F4083CA
:1022C000518362837383F701208131812F5F3F4FF8
:1022D00031832083D8014D915D916D917C914F5F49
:1022E0005F4F6F4F7F4FF801408351836283738349
:1022F000D4018D934D01B4E0CB0ED11CE2E0EE0E83
:10230000F11C0C5F1F4FFC8DFA11C4CF20928D037E
:1023100030928E0340928F03509290032EE6622EED
:1023200022E0722E34EDE32E32E0F32E2DE233E084
:10233000398B288B4DE653E05E874D876DE473E063
:102340007C876B871B8A1A8A1F86D30118962D916A
:102350003C91199721153105B1F0EB85FC85808101
:102360009181A281B38152014101881A990AAA0A76
:10237000BB0AA8EEB3E00E94911886169706A8063D
:10238000B9060CF408C1D3011A962D913C911B9704
:1023900021153105A9F0EB85FC8580819181A28111
:1023A000B38152014101881A990AAA0ABB0AA8EE10
:1023B000B3E00E94911886169706A806B906DCF4C9
:1023C000D30116962D913C9117972115310509F4EB
:1023D000E2C0F70180819181A889B9894D915C9112
:1023E000841B950B97FF03C09195819591098217E6
:1023F000930708F4D0C0F701F081F88FD701119648
:102400008C9011971296AC9012971396BC91B98F3D
:10241000A8EEB3E02F2F382D4A2D598D0E945C185D
:10242000F3012485358540E050E00E943D18922E4E
:10243000B32EEA89FB89E35FFC4F2083318342831B
:10244000538392E0C92ED12C00E010E09801922F26
:10245000812F702F66276C8B7D8B8E8B9F8BC60197
:102460004D8F5E8F0E9427180C891D892E893F8908
:10247000082B7FEFC71AD70A4D8D5E8D86E0C816F0
:10248000D10429F7EA89FB89E25BFD4F80818C8BBF
:1024900091819A8FA281AB8FC380ED85FE8570817B
:1024A000D180942F652FE0910B03F0910C03A38151
:1024B000B48118960D931D932D933C931B9728EF91
:1024C0001C962C93A381B48130E11D963C93A3818B
:1024D000B48149E61E964C93A381B4815F851F9613
:1024E0005C93A381B481298D50962C93A381B481F0
:1024F0005196AC92A381B48152968C92A381B481FF
:10250000388D53963C93A381B48154966C93A381E8
:10251000B48155969C93A381B4815696BC92A381B5
:10252000B48157969C92A381B4815896DC92A38182
:10253000B48159967C93A381B4815A96CC92A3819D
:10254000B4814B8D5B964C93A381B4815A8D5C967C
:102550005C93A381B4816C895D966C9361E0838107
:1025600094810E94B6078130B1F0F701808191819A
:10257000A281B381E889F98980839183A283B3839F
:10258000AB85BC852D923D924D925C921397ED8563
:10259000FE8511821082FF85FF5FFF8728E0620EB3
:1025A000711C34E0E30EF11C4A895B894C5F5F4F7C
:1025B0005B8B4A8B688979896C5F7F4F798B688BDD
:1025C0008B859C8504969C878B87AD85BE851296EE
:1025D000BE87AD87F83009F0B8CE0E94B20B3ACC76
:1025E000109296031092950388EE93E0A0E0B0E07D
:1025F0008093970390939803A0939903B0939A03C1
:102600002EE231E0309394032093930325EC30E0E5
:102610003093A00320939F0324EC30E03093A20377
:102620002093A10320EC30E03093A4032093A30374
:1026300021EC30E03093A6032093A50322EC30E098
:102640003093A8032093A70326EC30E03093AA032D
:102650002093A9031092AC031092AD031092AE0325
:102660001092AF031092D7041092D6048093D8042E
:102670009093D904A093DA04B093DB0486E491E04C
:102680009093D5048093D4041092EB041092EA0442
:102690001092ED041092EC041092EF041092EE04EC
:1026A0001092F1041092F0046091F2046E7F6D7F3D
:1026B0006093F2046695617081E0682786E00E946D
:1026C0009D0C61E086E00E94C802E8E8F1E0E49138
:1026D000E093E404E4E7F1E0E491F0E0EE0FFF1FA3
:1026E000E65AFE4F859194919093E6048093E50419
:1026F00060E085E00E94C8028091F20481FD04C080
:1027000061E085E00E949D0C85E08093E004E7E8AD
:10271000F1E0E491E093E104E3E7F1E0E491F0E03B
:10272000EE0FFF1FEC59FE4F859194919093E304B7
:102730008093E2048EE391E090933104809330041F
:1027400084ED94E090937F0480937E0482E08093F4
:102750008004109286041092CE041092CF0410923E
:10276000D0041092D10482ED90E09093D304809332
:10277000D2040895AA1BBB1B51E107C0AA1FBB1FAF
:10278000A617B70710F0A61BB70B881F991F5A95FD
:10279000A9F780959095BC01CD01089597FB072E70
:1027A00016F4009407D077FD09D00E94BA1307FCF5
:1027B00005D03EF4909581959F4F08957095619551
:1027C0007F4F0895EE0FFF1F0590F491E02D0994BF
:1027D000CF93DF938230910510F482E090E0E09196
:1027E000F504F091F60420E030E0C0E0D0E030974E
:1027F00011F14081518148175907C0F04817590716
:1028000061F482819381209719F09B838A832BC086
:102810009093F6048093F50426C02115310519F034
:102820004217530718F49A01BE01DF01EF0102803D
:10283000F381E02DDCCF2115310509F1281B390B7F
:102840002430310590F412968D919C911397611567
:10285000710521F0FB019383828304C09093F604F9
:102860008093F504FD01329644C0FD01E20FF31F91
:1028700081939193225031092D933C933AC020913A
:10288000F3043091F404232B41F42091040130919E
:1028900005013093F4042093F30420910201309158
:1028A00003012115310541F42DB73EB740910601D2
:1028B00050910701241B350BE091F304F091F404CF
:1028C000E217F307A0F42E1B3F0B2817390778F007
:1028D000AC014E5F5F4F2417350748F04E0F5F1F66
:1028E0005093F4044093F3048193919302C0E0E089
:1028F000F0E0CF01DF91CF9108950F931F93CF9315
:10290000DF93009709F48CC0FC0132971382128286
:102910000091F5041091F6040115110581F4208150
:102920003181820F931F2091F3043091F404281712
:10293000390779F5F093F404E093F30471C0D801FA
:1029400040E050E0AE17BF0750F412962D913C9135
:102950001397AD012115310509F1D901F3CF9D017F
:10296000DA013383228360817181860F971F82177A
:10297000930769F4EC0128813981260F371F2E5FF8
:102980003F4F318320838A819B8193838283452BB0
:1029900029F4F093F604E093F50442C01396FC93F7
:1029A000EE931297ED01499159919E01240F351F25
:1029B000E217F30771F480819181840F951F0296CD
:1029C00011969C938E938281938113969C938E9300
:1029D0001297E0E0F0E0D80112968D919C91139748
:1029E000009719F0F8018C01F6CF8D919C91980118
:1029F0002E5F3F4F820F931F2091F3043091F40418
:102A00002817390769F4309729F41092F6041092C8
:102A1000F50402C0138212821093F4040093F304AD
:102A2000DF91CF911F910F91089581E090E0F8948C
:102A30000C94D718FB01DC0102C001900D924150AB
:102A40005040D8F70895DC0101C06D9341505040CB
:102A5000E0F70895AEE0B0E0E0E3F5E10C94AE18E5
:102A60000D891E8986E08C831A8309838FEF9FE787
:102A70009E838D83AE01475E5F4F6F89788DCE0157
:102A800001960E944D152F813885F801E20FF31F42
:102A900010822E96E4E00C94CA18ACE0B0E0E3E5B6
:102AA000F5E10C94A0187C016B018A01FC011782EE
:102AB0001682838181FFBDC1CE0101964C01F701D1
:102AC0009381F60193FD859193FF81916F01882396
:102AD00009F4ABC1853239F493FD859193FF81915F
:102AE0006F01853229F4B70190E00E943517E7CFD6
:102AF000512C312C20E02032A0F48B3269F030F4DC
:102B0000803259F0833269F420612CC08D3239F063
:102B1000803339F4216026C02260246023C02860FD
:102B200021C027FD27C030ED380F3A3078F426FF5A
:102B300006C0FAE05F9E300D1124532E13C08AE0C8
:102B4000389E300D1124332E20620CC08E3221F4B9
:102B500026FD6BC1206406C08C3611F4206802C0CB
:102B6000883641F4F60193FD859193FF81916F01C1
:102B70008111C1CF982F9F7D9554933028F40C5F1D
:102B80001F4FFFE3F9830DC0833631F0833771F0B7
:102B9000833509F05BC022C0F801808189830E5F14
:102BA0001F4F44244394512C540115C03801F2E0C6
:102BB0006F0E711CF801A080B18026FF03C0652D47
:102BC00070E002C06FEF7FEFC5012C870E942A17CB
:102BD0002C0183012C852F77222E17C03801F2E0BB
:102BE0006F0E711CF801A080B18026FF03C0652D17
:102BF00070E002C06FEF7FEFC5012C870E941F17A6
:102C00002C012C852068222E830123FC1BC0832DE0
:102C100090E048165906B0F4B70180E290E00E94B7
:102C200035173A94F4CFF50127FC859127FE819161
:102C30005F01B70190E00E94351731103A94F1E03E
:102C40004F1A51084114510471F7E5C0843611F050
:102C5000893639F5F80127FF07C0608171818281CB
:102C600093810C5F1F4F08C060817181072E000C9B
:102C7000880B990B0E5F1F4F2F76722E97FF09C09E
:102C800090958095709561957F4F8F4F9F4F2068ED
:102C9000722E2AE030E0A4010E946D17A82EA81819
:102CA00044C0853729F42F7EB22E2AE030E025C0BB
:102CB000F22FF97FBF2E8F36C1F018F4883579F0E6
:102CC000B4C0803719F0883721F0AFC02F2F2061B2
:102CD000B22EB4FE0DC08B2D8460B82E09C024FF27
:102CE0000AC09F2F9660B92E06C028E030E005C0CC
:102CF00020E130E002C020E132E0F801B7FE07C079
:102D000060817181828193810C5F1F4F06C0608159
:102D1000718180E090E00E5F1F4FA4010E946D174B
:102D2000A82EA818FB2DFF777F2E76FE0BC0372D1F
:102D30003E7FA51450F474FE0AC072FC08C0372D03
:102D40003E7E05C0BA2C372D03C0BA2C01C0B52C6D
:102D500034FF0DC0FE01EA0DF11D8081803311F4B6
:102D6000397E09C032FF06C0B394B39404C0832FE8
:102D7000867809F0B39433FD13C030FF06C05A2C97
:102D8000B31418F4530C5B18B32CB31468F4B701E4
:102D900080E290E03C870E943517B3943C85F5CFE4
:102DA000B31410F43B1801C0312C34FF12C0B7012A
:102DB00080E390E03C870E9435173C8532FF17C0C6
:102DC00031FD03C088E790E002C088E590E0B701DC
:102DD0000CC0832F867859F031FF02C08BE201C00E
:102DE00080E237FD8DE2B70190E00E943517A5140F
:102DF00038F4B70180E390E00E9435175A94F7CF7A
:102E0000AA94F401EA0DF11D8081B70190E00E94BF
:102E10003517A110F5CF332009F451CEB70180E268
:102E200090E00E9435173A94F6CFF701868197819A
:102E300002C08FEF9FEF2C96E2E10C94BC18FC01CE
:102E40000590615070400110D8F7809590958E0FD5
:102E50009F1F0895FC016150704001900110D8F748
:102E6000809590958E0F9F1F08950F931F93CF937A
:102E7000DF93FB01238121FD03C08FEF9FEF28C06B
:102E800022FF16C04681578124813581421753079E
:102E900044F4A081B1819D012F5F3F4F3183208396
:102EA0008C93268137812F5F3F4F3783268310C055
:102EB000EB01092F182F0084F185E02D0995892B4E
:102EC000E1F68E819F8101969F838E83812F902FC3
:102ED000DF91CF911F910F910895FA01AA27283011
:102EE00051F1203181F1E8946F936E7F6E5F7F4FD7
:102EF0008F4F9F4FAF4FB1E03ED0B4E03CD0670F53
:102F0000781F891F9A1FA11D680F791F8A1F911DA5
:102F1000A11D6A0F711D811D911DA11D20D009F4F5
:102F200068943F912AE0269F11243019305D319337
:102F3000DEF6CF010895462F4770405D4193B3E020
:102F40000FD0C9F7F6CF462F4F70405D4A3318F0C7
:102F5000495D31FD4052419302D0A9F7EACFB4E078
:102F6000A6959795879577956795BA95C9F7009730
:102F70006105710508959B01AC010A2E06945795D1
:102F8000479537952795BA95C9F7620F731F841F28
:102F9000951FA01D08958F929F92AF92BF92CF92DE
:102FA000DF92EF92FF92CF93DF93EC0168817981FA
:102FB0008A819B81611571058105910521F464E287
:102FC00079ED8BE597E02DE133EF41E050E00E9491
:102FD0003D1849015A019B01AC01A7EAB1E40E94E6
:102FE0005C186B017C01ACEEB4EFA50194010E946A
:102FF0006A18DC01CB018C0D9D1DAE1DBF1DB7FFF6
:1030000003C00197A109B04888839983AA83BB8331
:10301000BC01CD019F77DF91CF91FF90EF90DF90C2
:10302000CF90BF90AF909F908F9008950E94CB1744
:10303000089588E091E00E94CB17089560930801FD
:103040007093090180930A0190930B010895F999F7
:10305000FECF92BD81BDF89A992780B50895262F9D
:10306000F999FECF1FBA92BD81BD20BD0FB6F8946D
:10307000FA9AF99A0FBE01960895052E97FB1EF451
:1030800000940E94541857FD07D00E946F1807FC47
:1030900003D04EF40C9454185095409530952195DA
:1030A0003F4F4F4F5F4F0895909580957095619574
:1030B0007F4F8F4F9F4F08950E949118A59F900DAD
:1030C000B49F900DA49F800D911D11240895B7FF0A
:1030D0000C945C180E945C18821B930B0895A1E26B
:1030E0001A2EAA1BBB1BFD010DC0AA1FBB1FEE1F82
:1030F000FF1FA217B307E407F50720F0A21BB30BCD
:10310000E40BF50B661F771F881F991F1A9469F748
:1031100060957095809590959B01AC01BD01CF01A4
:103120000895A29FB001B39FC001A39F700D811DA0
:103130001124911DB29F700D811D1124911D0895C0
:103140002F923F924F925F926F927F928F929F92B7
:10315000AF92BF92CF92DF92EF92FF920F931F93A5
:10316000CF93DF93CDB7DEB7CA1BDB0B0FB6F89456
:10317000DEBF0FBECDBF09942A88398848885F8496
:103180006E847D848C849B84AA84B984C884DF8007
:10319000EE80FD800C811B81AA81B981CE0FD11DEB
:1031A0000FB6F894DEBF0FBECDBFED01089510E05D
:1031B000CCECD0E004C0FE010E94E2132196CD3C8D
:0831C000D107C9F7F894FFCF15
:1031C80018010000F7048000010000000F0E111024
:1031D80012130307000000003A023B022C024002CF
:1031E80000000000F908FE043E0200000000490B40
:1031F800C50A120BF00A040B900B00000000110422
:103208003C02000000001001C50A64017C01F700BF
:103218000F012530376C75004842572D53656E2DC8
:10322800455020202D20382D4661636820533020DA
:10323800696E746572666163650A004368616E6EE3
:10324800656C20202020203A20000D0A006661636A
:10325800746F727952657365740A00536574746982
:0C3268006E67206E65772049443A000034
:00000001FF
